:020000040800F2
:1000000000280020D91A0008E9190008EF19000893
:10001000F5190008FB190008011A0008000000008B
:10002000000000000000000000000000071A0008A7
:10003000131A0008000000001F1A00082B1A0008FD
:10004000211B0008211B0008211B0008211B0008A0
:10005000211B0008211B0008211B0008211B000890
:10006000211B0008211B0008211B0008211B000880
:10007000211B0008211B0008211B0008211B000870
:10008000211B0008211B0008211B0008211B000860
:10009000211B0008211B0008211B0008211B000850
:1000A000211B0008211B0008211B0008211B000840
:1000B000391A0008211B000800000000211B00085D
:1000C000211B00080000000000000000211B0008A8
:1000D00000000000211B00084D1A0008000000006D
:1000E000211B0008211B0008211B00080000000044
:1000F0000000000000000000000000000000000000
:0C01000000000000000000005FF808F1A3
:10010C0010B5054C237833B9044B13B10448AFF345
:10011C0000800123237010BD1C0100200000000092
:10012C00384C000808B5034B1BB103490348AFF327
:10013C00008008BD0000000020010020384C0008A1
:10014C0080B582B000AF00237B6009E189497A68F1
:10015C001346DB009B1A9B000B440433196885483B
:10016C007A681346DB009B1A9B0003441960814993
:10017C007A681346DB009B1A9B000B440833196802
:10018C007C487A681346DB009B1A9B0003440433BB
:10019C001960794A7B6852F8232078497B6831F8DA
:1001AC0013301946104602F051F8034618467149AF
:1001BC007A681346DB009B1A9B000B4408331860CB
:1001CC006C497A681346DB009B1A9B000B44196838
:1001DC0068487A681346DB009B1A9B00034404337F
:1001EC001B68994240F0B98062497A681346DB007B
:1001FC009B1A9B000B44043319685E487A681346BB
:10020C00DB009B1A9B00034408331B68994240F0A7
:10021C00A48058497A681346DB009B1A9B000B4458
:10022C000C33196853487A681346DB009B1A9B0001
:10023C00034408331B68994252D04E497A681346DE
:10024C00DB009B1A9B000B440833196849487A68F9
:10025C001346DB009B1A9B0003440C331960454981
:10026C007A681346DB009B1A9B000B4408331B680F
:10027C00002B14D13F497A681346DB009B1A9B0074
:10028C000B44103301221A603A497A681346DB009A
:10029C009B1A9B000B44183364221A605DE03549AD
:1002AC007A681346DB009B1A9B000B4408331B68CF
:1002BC00012B52D12F497A681346DB009B1A9B0005
:1002CC000B4410331B68012B47D12A497A6813461B
:1002DC00DB009B1A9B000B44103302221A603CE09B
:1002EC0024497A681346DB009B1A9B000B440833A5
:1002FC001B68002B31D11F497A681346DB009B1A0F
:10030C009B000B4418331B68591E1A487A68134615
:10031C00DB009B1A9B0003441833196015497A685B
:10032C001346DB009B1A9B000B4418331B68002BF5
:10033C0013D110497A681346DB009B1A9B000B44BF
:10034C00143301221A600B497A681346DB009B1A9E
:10035C009B000B44103300221A607B6801337B60D6
:10036C007B68032B7FF7F2AE00BF00BF0837BD469A
:10037C0080BD00BF00000020700000208000002025
:10038C0080B483B000AF78600E497A681346DB0006
:10039C009B1A9B000B4410331B68022B0BD1094991
:1003AC007A681346DB009B1A9B000B441033002227
:1003BC001A60012300E0002318460C37BD4680BCB0
:1003CC00704700BF0000002080B483B000AF78609D
:1003DC000E497A681346DB009B1A9B000B441433BE
:1003EC001B68012B0BD109497A681346DB009B1A59
:1003FC009B000B44143300221A60012300E00023FD
:10040C0018460C37BD4680BC704700BF000000206A
:10041C0080B500AF474B1B680A2B7FD801A252F85E
:10042C0023F000BF2905000879040008A104000886
:10043C00D1040008F9040008290500082905000862
:10044C002905000829050008290500085D04000895
:10045C00384B01221A60384B1B68384A1360384BF2
:10046C001B68384A136000F05FFF60E0002000F06A
:10047C0091FE012000F0E0FE324B1B68002B4FD1A7
:10048C002C4B02221A60304B1B682E4A136000F072
:10049C004BFF45E0002000F07DFE012000F0A2FEA5
:1004AC00284B1B68002B3DD1224B03221A60244B96
:1004BC001B68224A1360204B1B68224A136000F011
:1004CC0033FF2FE0002000F0B7FE012000F062FEA9
:1004DC001A4B1B68002B27D1164B04221A601A4B9F
:1004EC001B68164A136000F01FFF1DE0002000F08F
:1004FC0079FE012000F04EFE104B1B68002B15D12D
:10050C000C4B01221A600C4B1B680C4A13600C4BF1
:10051C001B680C4A136000F007FF07E000BF06E001
:10052C0000BF04E000BF02E000BF00E000BF00BF5E
:10053C0080BD00BF8C0000209000002050010020E6
:10054C0098000020540100209400002080B500AFDA
:10055C001F4B1B680A2B06D00A2B31DC002B0CD04E
:10056C00012B1AD02CE01A4B9B680321184601F082
:10057C00F7F8174B01221A6027E0164B1B68002274
:10058C005A63154BDB68002B1CD00321642001F04F
:10059C00E7F80F4B01221A6014E00D4B5A680D4B13
:1005AC001B685A630C4BDB68002B0DD0084B9B6807
:1005BC000321184601F0D4F8054B00221A6003E021
:1005CC0000BF02E000BF00E000BF00BF80BD00BF65
:1005DC0044010020840100206801002080B500AF98
:1005EC003F4B1B680A2B74D801A252F823F000BFB2
:1005FC0029060008C906000877060008DF0600086F
:10060C00DF060008DF060008DF060008DF0600082A
:10061C00DF060008DF06000841060008002000F095
:10062C00B5FE012000F0B2FE2E4B00221A60FFF73F
:10063C008DFF53E02C4B1B68012B03D02A4B1B68FE
:10064C00022B03D1264B02221A600AE0264B1B68B0
:10065C00032B03D0244B1B68042B02D1204B01220B
:10066C001A60204B0A221A6038E0012000F068FE64
:10067C001E4B1B68032B14DC1C4B1B68002B10DD62
:10068C001A4B1B68642202FB03F3164A9360174B48
:10069C001B6842F6E06292FBF3F3124A5360FFF7D9
:1006AC0055FF124B1B68002B15DC0D4B01221A60F9
:1006BC000C4B00221A60FFF749FF0CE0002000F001
:1006CC003FFE0B4B1B68002B07DC054B02221A600C
:1006DC0003E000BF02E000BF00E000BF00BF80BD30
:1006EC0040010020440100208C000020500100201B
:1006FC005401002080B500AF3B4B1B680A2B67D818
:10070C0001A252F823F000BFDD0700084D070008D6
:10071C007107000895070008B9070008DD070008F5
:10072C00DD070008DD070008DD070008DD0700080D
:10073C00410700082C4B01221A6000F0F5FD50E037
:10074C00002000F027FD012000F076FD0020FFF7CF
:10075C0017FE0346002B3DD0234B02221A6000F0FB
:10076C00E3FD37E0002000F015FD012000F03AFD1C
:10077C000020FFF705FE0346002B2DD01A4B032259
:10078C001A6000F0D1FD27E0002000F055FD01209B
:10079C0000F000FD0020FFF7F3FD0346002B1DD0F9
:1007AC00114B04221A6000F0BFFD17E0002000F08E
:1007BC0019FD012000F0EEFC0020FFF7E1FD0346DF
:1007CC00002B0DD0084B01221A6000F0ADFD07E0A4
:1007DC0000BF06E000BF04E000BF02E000BF00E085
:1007EC0000BF00BF80BD00BF3801002080B500AF46
:1007FC001D4B1B68012B0ED11C4B1B681A461C4948
:10080C001C4803F08FFE03469AB24FF4FA73194951
:10081C00194803F00CF9144B1B68022B0ED1174B23
:10082C001B681A461649134803F07CFE03469AB21D
:10083C004FF4FA730F49104803F0F9F80A4B1B6890
:10084C00032B0ED10F4B1B681A460F49094803F0B6
:10085C0069FE03469AB24FF4FA730649064803F050
:10086C00E6F800BF80BD00BF3C01002090000020D6
:10087C00504C000810020020CC01002094000020F5
:10088C00644C000898000020784C000880B500AF3C
:10089C00714B1B680A2B00F2D58001A252F823F091
:1008AC00D9080008F5080008DD09000869090008E6
:1008BC00510A0008510A0008510A0008510A0008A0
:1008CC00510A0008510A0008D9080008624B01229D
:1008DC001A6000F029FDFFF789FF604B5B6801216E
:1008EC00184600F03DFFB4E000F0D0FC0220FFF70A
:1008FC0047FD0346002B0ED0594B1B680133584A59
:10090C001360574B1B68632B02DD554B00221A609A
:10091C00FFF76CFF98E00220FFF756FD0346002B13
:10092C000ED04F4B1B68013B4D4A13604C4B1B6860
:10093C00002B02DA4A4B63221A60FFF757FF83E061
:10094C000120FFF71DFD0346002B7DD0424B0322F7
:10095C001A6000F0E9FCFFF749FF75E000F0CAFCF3
:10096C000220FFF70DFD0346002B0ED03D4B1B68FC
:10097C0001333C4A13603B4B1B68632B02DD394B44
:10098C0000221A60FFF732FF60E00220FFF71CFD27
:10099C000346002B0ED0334B1B68013B314A1360CE
:1009AC00304B1B68002B02DA2E4B63221A60FFF7C8
:1009BC001DFF4BE00120FFF7E3FC0346002B45D065
:1009CC00254B02221A6000F0AFFCFFF70FFF3DE051
:1009DC0000F076FC0220FFF7D3FC0346002B0ED070
:1009EC00214B1B680133204A13601F4B1B68632B80
:1009FC0002DD1D4B00221A60FFF7F8FE28E00220F2
:100A0C00FFF7E2FC0346002B0ED0174B1B68013B93
:100A1C00154A1360144B1B68002B02DA124B63222D
:100A2C001A60FFF7E3FE13E00120FFF7A9FC034671
:100A3C00002B0DD0084B01221A6000F075FCFFF75B
:100A4C00D5FE05E000BF04E000BF02E000BF00E0FF
:100A5C0000BF00BF80BD00BF3C0100209C000020F7
:100A6C0090000020980000209400002080B500AF7A
:100A7C000020FFF7A9FC0346002B31D0354B1B6837
:100A8C00022B1DD0334B02221A603349334803F03A
:100A9C0049FD03469AB24FF4FA733049304802F0DC
:100AAC00C6FF304B0A221A602F4B00221A602F4BC4
:100ABC0000221A602E4B00221A60FFF78FFD46E0D1
:100ACC00244B0A221A602B49244803F02BFD0346C1
:100ADC009AB24FF4FA732149214802F0A8FF36E08C
:100AEC000120FFF771FC0346002B30D0194B1B681B
:100AFC00032B1DD0174B03221A601F49174803F014
:100B0C0011FD03469AB24FF4FA731449144802F0DB
:100B1C008EFF164B0A221A60134B00221A60114BDF
:100B2C0000221A60124B00221A60FFF757FD0EE0EC
:100B3C00084B0A221A600F49084803F0F3FC0346DD
:100B4C009AB24FF4FA730549054802F070FF00BFE2
:100B5C0080BD00BF880000208C4C000810020020D3
:100B6C00CC010020380100208C0000203C0100202A
:100B7C0040010020A84C0008C04C000880B500AF14
:100B8C00454B1B68013B092B00F2828001A252F8F5
:100B9C0023F000BF430C0008910C0008970C0008D0
:100BAC009D0C00089D0C00089D0C00089D0C000875
:100BBC009D0C00089D0C0008C90B0008374B1A68E7
:100BCC00374B1B681A44374B1B689A421BD0324B6D
:100BDC0004221A603449354803F0A4FC03469AB247
:100BEC004FF4FA733149324802F021FF314B0022A5
:100BFC001A60314B00221A60304B00221A60304BC5
:100C0C0000221A6014E0244B01221A60294B0A229C
:100C1C001A60294B00221A60284B00221A60284BBC
:100C2C0000221A60274B1B680021184600F098FD23
:100C3C0000F0A4FA2DE00320FFF7A2FB0346002BE3
:100C4C0014D01F4B1B68002B0DD11D4B0A221A60B0
:100C5C00144B1B684FF47A6202FB03F30221184613
:100C6C0000F07EFD02E0164B00221A60164B9B68CA
:100C7C00012B02D1124B00221A60FFF7AFFCFFF7D9
:100C8C00C7FB06E0FFF736FD03E0FFF7FFFD00E0D2
:100C9C0000BF00BF80BD00BF880000209400002072
:100CAC009800002090000020DC4C0008100200206E
:100CBC00CC0100208C000020380100203C010020D9
:100CCC00400100209C0000206801002080B500AF8E
:100CDC00314B1B68012B5CD1304B1B68012B58D15D
:100CEC002F4B1B68013B2E4A13602E4B1B68013B9C
:100CFC002C4A13602A4B1B681A462B492B4803F0CD
:100D0C0011FC03469AB24FF4FA732849284802F0B2
:100D1C008EFE244B1B681A462649244803F002FC1D
:100D2C0003469AB24FF4FA732049214802F07FFE31
:100D3C00214B1B68002B26D01F4B1B68022B0FD19D
:100D4C00174B1B681A461D49184803F0EBFB03466A
:100D5C009AB24FF4FA731549154802F068FE12E086
:100D6C00154B1B68012B0ED10E4B1B681A461349F1
:100D7C000E4803F0D7FB03469AB24FF4FA730B49B3
:100D8C000B4802F054FE0E4B1B680021184600F075
:100D9C00E7FC00BF80BD00BF680100208800002078
:100DAC005001002054010020EC4C000810020020DF
:100DBC00CC010020004D000840010020144D00081B
:100DCC009C00002080B500AF00F0A6FE00F044F8B7
:100DDC0000F06AF900F07CF800F03CF900F0C4F87F
:100DEC00154801F0E5FE0021144801F085FF144B75
:100DFC001B680021184600F0B3FC00F00DFB01222B
:100E0C000021104800F022FB012200210E4800F0C6
:100E1C001DFB012200210D4800F018FB01220021CE
:100E2C000B4800F013FB012200210A4800F00EFBD6
:100E3C0000F068FCFCE700BF4402002084010020A5
:100E4C009C000020890B0008D90C0008790A0008C6
:100E5C00AD1700084D01000880B590B000AF07F148
:100E6C00180328220021184603F09EFA3B1D00228D
:100E7C001A605A609A60DA601A610223BB6101231E
:100E8C00BB621023FB6200237B6307F11803184637
:100E9C0001F024FA0346002B01D000F069F90F236E
:100EAC007B600023BB600023FB6000233B610023BD
:100EBC007B613B1D0021184601F090FC0346002B82
:100ECC0001D000F055F900BF4037BD4680BD000091
:100EDC0080B586B000AF07F1080300221A605A6093
:100EEC009A60DA603B4600221A605A601D4B4FF044
:100EFC0080421A601B4B09225A601A4B00229A60DE
:100F0C00184B41F63F72DA60164B00221A61154BF2
:100F1C0000229A61134801F0FBFD0346002B01D01F
:100F2C0000F026F94FF48053BB6007F10803194613
:100F3C000C4802F043F90346002B01D000F018F9DD
:100F4C0000233B6000237B603B461946054802F0BA
:100F5C00B7FC0346002B01D000F00AF900BF18378C
:100F6C00BD4680BD4402002080B58EB000AF07F1B5
:100F7C00280300221A605A609A60DA6007F1200395
:100F8C0000221A605A603B1D00221A605A609A6057
:100F9C00DA601A615A619A612C4B2D4A1A602B4BFC
:100FAC0009225A60294B00229A60284B41F63F7265
:100FBC00DA60264B00221A61244B80229A61234866
:100FCC0001F0A6FD0346002B01D000F0D1F84FF440
:100FDC008053BB6207F1280319461C4802F0EEF857
:100FEC000346002B01D000F0C3F8184801F02CFE8A
:100FFC000346002B01D000F0BBF800233B6200231A
:10100C007B6207F120031946104802F059FC034695
:10101C00002B01D000F0ACF860237B600023BB6098
:10102C000023FB6000237B613B1D0022194607480F
:10103C0002F006F80346002B01D000F099F80348A3
:10104C0000F048FC00BF3837BD4680BD840100204D
:10105C000004004080B500AF114B124A1A60104BCF
:10106C004FF416525A600E4B00229A600C4B002221
:10107C00DA600B4B00221A61094B0C225A61084BA7
:10108C0000229A61064B0022DA61054802F082FCCC
:10109C000346002B01D000F06BF800BF80BD00BFF1
:1010AC00CC0100200044004080B586B000AF07F1B1
:1010BC00080300221A605A609A60DA60244B9B691C
:1010CC00234A43F010039361214B9B6903F01003F7
:1010DC007B607B681E4B9B691D4A43F00403936144
:1010EC001B4B9B6903F004033B603B68002241F6F9
:1010FC00B071184801F0C1F84FF46043BB60002395
:10110C00FB6001233B6107F108031946124800F00C
:10111C0023FF0123BB600023FB6001233B6107F12C
:10112C00080319460B4800F017FF41F6B073BB607B
:10113C000123FB6000233B6102237B6107F1080361
:10114C001946044800F008FF00BF1837BD4680BDA3
:10115C0000100240000801400010014080B582B030
:10116C0000AF786000F0B2FA00BF0837BD4680BD12
:10117C0080B400AF72B600BFFEE7000080B500AFD0
:10118C00012241F6B071024801F077F800BF80BD32
:10119C000008014080B582B000AF78607B68002BFE
:1011AC000BD1002280210E4801F067F801224FF488
:1011BC0040710B4801F061F80EE07B68012B0BD1FC
:1011CC0000224FF48061064801F057F801224FF4D9
:1011DC00C051034801F051F800BF0837BD4680BD2F
:1011EC000008014080B582B000AF78607B68002BAE
:1011FC000CD100224FF480710E4801F03EF8012210
:10120C004FF420710B4801F038F80EE07B68012B8D
:10121C000BD100224FF40061064801F02EF8012298
:10122C004FF4A051034801F028F800BF0837BD4621
:10123C0080BD00BF0008014080B582B000AF78606F
:10124C007B68002B0CD100224FF400710E4801F08A
:10125C0014F801224FF4C0710B4801F00EF80EE0A7
:10126C007B68012B0BD100224FF48051064801F012
:10127C0004F801224FF44061034800F0FEFF00BF68
:10128C000837BD4680BD00BF0008014080B500AFE7
:10129C00084B5B68012B0AD14FF49061064801F0B2
:1012AC0004F8064B5B680121184600F059FA00BFA0
:1012BC0080BD00BF68010020000801409C00002098
:1012CC0080B500AF084B5B68012B0AD14FF410615D
:1012DC00064800F0EAFF064B5B680121184600F057
:1012EC003FFA00BF80BD00BF68010020000801402C
:1012FC009C00002080B500AF084B5B68012B0AD125
:10130C004FF49051064800F0D0FF064B5B6801216A
:10131C00184600F025FA00BF80BD00BF6801002010
:10132C00000801409C00002080B500AF01224FF462
:10133C00FC51024800F0A1FF00BF80BD0008014035
:10134C0080B582B000AF78607B68002B0AD1002298
:10135C0010210D4800F091FF012220210A4800F0D5
:10136C008CFF0CE07B68012B09D10122102106486F
:10137C0000F083FF00222021034800F07EFF00BF15
:10138C000837BD4680BD00BF0008014080B582B063
:10139C0000AF78607B68002B05D101221021084832
:1013AC0000F06BFF07E07B68012B04D101222021A8
:1013BC00034800F062FF00BF0837BD4680BD00BF88
:1013CC000008014080B586B000AFF860B9607A6063
:1013DC003B60102002F0E0FF03467B617B69BA683A
:1013EC001A607B697A685A607B693A689A60FB6814
:1013FC00002B03D0FB681B68002B03D17B697A6937
:10140C00DA6004E0FB681B68DA687B69DA607B6988
:10141C0018461837BD4680BD80B500AF0C2002F0D1
:10142C00BBFF03461A46084B1A60074B1B68002289
:10143C001A60054B1B6800225A60034B1B68002284
:10144C009A6000BF80BD00BF8C02002090B58BB0AD
:10145C0000AFF860B9607A606E4B1B681B68002B9C
:10146C000FD16C4B1C687B68BA68F9680020FFF7D9
:10147C00A9FF03462360674B1B685A6801325A6008
:10148C00C4E0644B1B681B687B6100237B620023F8
:10149C00BB6100233B62B1E07B69DB685B687A6A05
:1014AC0013447B627A6ABB689A4265D97B69DB68B4
:1014BC005A687B6AD31ABA681344BB617B69DB68D0
:1014CC00796ABA688A1A5A60524B1B689B68002B5F
:1014DC000FD17C6907F114007B68BA69F968FFF7D2
:1014EC0071FF0346E3604B4B1B685A6801325A602C
:1014FC008CE0484B1B681B68FA681A60454B1B68EC
:10150C001B68BA695A60434B1B681B687A689A60FF
:10151C007B69DB68FB6102E0FB69DB68FB61FB69F3
:10152C00DA683C4B1B681B689A42F5D1394B1B6837
:10153C001A687B699A4204D1364B1B68FA691A60A7
:10154C0014E0344B1B681B68DA68FB69DA607A6953
:10155C00304B1B681B68D268DA602E4B1A687B69AB
:10156C001268DA602B4B1B68FA691A60294B1B68EE
:10157C009A68013A9A6049E07B69DB681B68002B2A
:10158C0013D17B69DB68FA681A607B69DB68B96820
:10159C007A6A8A1A5A607B69DB687A689A601D4B92
:1015AC001B689A68013A9A6030E07B69DA68194BDB
:1015BC001B681B689A421BD1164B1B681846BA68ED
:1015CC007B6AD21A134B1B681C687B68F968FFF79F
:1015DC00F9FE0346E3600F4B1B681A680D4B1B6842
:1015EC00D2681A600B4B1B685A6801325A600DE0C6
:1015FC007B69DB687B613B6A01333B62054B1B6893
:10160C005B683A6A9A42FFF647AFFFE700BF2C3798
:10161C00BD4690BD8C02002080B485B000AF7860D0
:10162C007B681B68DB68FB60274B1B681B68FA68D0
:10163C009A4208D0FB68DB685968FB685A68FB68FB
:10164C00DB680A445A60FB6800221A60FB680022BF
:10165C005A60FB6800229A607B681A681A4B1B68F8
:10166C001B689A4207D1184B1B681A68164B1B68EB
:10167C00D2681A601EE0FB68DB681B68002B19D06F
:10168C00114B1B681B68FA689A4213D07B681B6865
:10169C00FA68D268DA600C4B1B681B68DA68FB6866
:1016AC00DA60094B1B681B68FA68DA60064B1B682A
:1016BC00FA681A60044B1B689A6801329A6000BF82
:1016CC001437BD4680BC70478C02002080B400AF3C
:1016DC000B4B1B681B68002B0DD0094B1B681B6840
:1016EC00DB685B68002B06D0054B1B681B68DB684E
:1016FC005A68013A5A6000BFBD4680BC704700BFB3
:10170C008C02002090B585B000AF1BE0134B1B681A
:10171C001B68DB681B689847104B1B681B68DB68F1
:10172C003C460FCB84E80F000C4B1B681846FFF7A8
:10173C0073FFBB68002B05D03B68B968BA681846C4
:10174C00FFF784FE054B1B681B68DB685B68002B8E
:10175C00DCD000BF00BF1437BD4690BD8C0200200A
:10176C0080B483B000AF786039607B68094A82FB33
:10177C0003129210DB17D21A07493B6841F8232059
:10178C00064A3B68002142F8231000BF0C37BD46C7
:10179C0080BC7047676666665801002068010020AF
:1017AC0080B483B000AF00237B601CE0124A7B68DE
:1017BC0052F82330002B13DD0F4A7B6852F823308C
:1017CC005A1E0D497B6841F823200B4A7B6852F85E
:1017DC002330002B04DC094A7B68012142F82310DA
:1017EC007B6801337B607B68032BDFDD00BF00BFB0
:1017FC000C37BD4680BC70475801002068010020A2
:10180C0080B485B000AF154B9B69144A43F00103BB
:10181C009361124B9B6903F00103BB60BB680F4BD8
:10182C00DB690E4A43F08053D3610C4BDB6903F048
:10183C0080537B607B680A4B5B68FB60FB6823F022
:10184C00E063FB60FB6843F00073FB60044AFB68D9
:10185C00536000BF1437BD4680BC70470010024077
:10186C000000014080B584B000AF78607B681B68D5
:10187C00B3F1804F14D1154BDB69144A43F00103CB
:10188C00D361124BDB6903F00103FB60FB680022A0
:10189C0000211C2000F079FA1C2000F092FA10E0D4
:1018AC007B681B680A4A93420BD1084BDB69074AD9
:1018BC0043F00203D361054BDB6903F00203BB6009
:1018CC00BB6800BF1037BD4680BD00BF0010024092
:1018DC000004004080B588B000AF786007F11003B9
:1018EC0000221A605A609A60DA607B681B680F4AA3
:1018FC00934217D10E4B9B690D4A43F0040393613D
:10190C000B4B9B6903F00403FB60FB6840233B61BA
:10191C0002237B610223FB6107F110031946054882
:10192C0000F01AFB00BF2037BD4680BD000400400C
:10193C00001002400008014080B588B000AF78600C
:10194C0007F1100300221A605A609A60DA607B6813
:10195C001B681F4A934237D11E4BDB691D4A43F467
:10196C000033D3611B4BDB6903F40033FB60FB6872
:10197C00184B9B69174A43F004039361154B9B6901
:10198C0003F00403BB60BB6804233B6102237B614F
:10199C000323FB6107F1100319460F4800F0DCFA32
:1019AC0008233B6100237B610023BB6107F110031B
:1019BC001946094800F0D0FA00220021262000F038
:1019CC00E4F9262000F0FDF900BF2037BD4680BDAC
:1019DC0000440040001002400008014080B400AFF9
:1019EC00FEE780B400AFFEE780B400AFFEE780B442
:1019FC0000AFFEE780B400AFFEE780B400AF00BFDD
:101A0C00BD4680BC704780B400AF00BFBD4680BCF3
:101A1C00704780B400AF00BFBD4680BC704780B536
:101A2C0000AF00F0BFF800BF80BD000080B500AF74
:101A3C00024801F0FDF900BF80BD00BF4402002048
:101A4C0080B500AF024802F085F800BF80BD00BF32
:101A5C00CC01002080B586B000AF7860144A154BDD
:101A6C00D31A7B617B693B61134B1B68002B02D142
:101A7C00114B124A1A60104B1A687B6813443A696E
:101A8C009A4207D202F05EFC03460C221A604FF019
:101A9C00FF3309E0084B1B68FB60074B1A687B6837
:101AAC001344054A1360FB6818461837BD4680BDC1
:101ABC00002800200004000078010020A80200206B
:101ACC0080B400AF00BFBD4680BC7047FFF7F8FF85
:101ADC000B480C490C4A002302E0D458C450043380
:101AEC00C4188C42F9D3094A094C002301E0136055
:101AFC000432A242FBD302F02BFCFFF763F97047D0
:101B0C00000000201C0100208C4D00081C0100204E
:101B1C00A4020020FEE7000080B500AF084B1B6854
:101B2C00074A43F010031360032000F023F90F2041
:101B3C0000F008F8FFF764FE0023184680BD00BFD4
:101B4C000020024080B582B000AF7860124B1A685A
:101B5C00124B1B7819464FF47A73B3FBF1F3B2FBBB
:101B6C00F3F3184600F03BF90346002B01D0012398
:101B7C000EE07B680F2B0AD8002279684FF0FF30FB
:101B8C0000F003F9064A7B681360002300E0012390
:101B9C0018460837BD4680BDAC000020B4000020BC
:101BAC00B000002080B400AF054B1B781A46054BE3
:101BBC001B681344034A136000BFBD4680BC7047CA
:101BCC00B40000209002002080B400AF024B1B68D0
:101BDC001846BD4680BC70479002002080B485B08A
:101BEC0000AF78607B6803F00703FB600C4BDB688D
:101BFC00BB60BA684FF6FF031340BB60FB681A0268
:101C0C00BB68134343F0BF6343F40033BB60044A27
:101C1C00BB68D36000BF1437BD4680BC704700BFA3
:101C2C0000ED00E080B400AF044BDB681B0A03F04E
:101C3C0007031846BD4680BC704700BF00ED00E0AE
:101C4C0080B483B000AF0346FB7197F90730002BCB
:101C5C000BDBFB7903F01F02064997F907305B0990
:101C6C00012000FA02F241F8232000BF0C37BD46D8
:101C7C0080BC704700E100E080B483B000AF034645
:101C8C003960FB7197F90730002B0ADB3B68DAB23D
:101C9C000C4997F907301201D2B20B4483F8002398
:101CAC000AE03B68DAB20849FB7903F00F03043B06
:101CBC001201D2B20B441A7600BF0C37BD4680BC61
:101CCC00704700BF00E100E000ED00E080B489B097
:101CDC0000AFF860B9607A60FB6803F00703FB6142
:101CEC00FB69C3F10703042B28BF0423BB61FB6909
:101CFC000433062B02D9FB69033B00E000237B6114
:101D0C004FF0FF32BB6902FA03F3DA43BB681A40A7
:101D1C007B699A404FF0FF317B6901FA03F3D94399
:101D2C007B680B40134318462437BD4680BC704774
:101D3C0080B582B000AF78607B68013BB3F1807FE7
:101D4C0001D301230FE00A4A7B68013B53600F214A
:101D5C004FF0FF30FFF790FF054B00229A60044BC9
:101D6C0007221A60002318460837BD4680BD00BF05
:101D7C0010E000E080B582B000AF78607868FFF7C3
:101D8C002DFF00BF0837BD4680BD80B586B000AFC3
:101D9C000346B9607A60FB7300237B61FFF742FF57
:101DAC0078617A68B9687869FFF790FF024697F90D
:101DBC000F3011461846FFF75FFF00BF1837BD46BE
:101DCC0080BD80B582B000AF0346FB7197F9073038
:101DDC001846FFF735FF00BF0837BD4680BD80B5FC
:101DEC0082B000AF78607868FFF7A2FF0346184610
:101DFC000837BD4680BD80B485B000AF7860002345
:101E0C00FB737B6893F82130022B08D07B6804228B
:101E1C009A637B68002283F82020012320E07B68F2
:101E2C001B681A687B681B6822F00E021A607B68BC
:101E3C001B681A687B681B6822F001021A607B68B9
:101E4C001A6C7B68DB6B012101FA02F25A607B6829
:101E5C00012283F821207B68002283F82020FB7B61
:101E6C0018461437BD4680BC7047000080B584B05E
:101E7C0000AF78600023FB737B6893F82130022B52
:101E8C0005D07B6804229A630123FB7351E07B68C5
:101E9C001B681A687B681B6822F00E021A607B684C
:101EAC001B681A687B681B6822F001021A607B6849
:101EBC001B68224A934229D07B681B68204A9342B4
:101ECC0022D07B681B681F4A93421AD07B681B6820
:101EDC001D4A934212D07B681B681C4A93420AD05D
:101EEC007B681B681A4A934202D14FF480130EE0B0
:101EFC004FF080730BE04FF4803308E04FF48053C5
:101F0C0005E04FF4807302E0102300E00123114A36
:101F1C0053607B68012283F821207B68002283F8C0
:101F2C0020207B685B6B002B03D07B685B6B786835
:101F3C009847FB7B18461037BD4680BD0800024011
:101F4C001C00024030000240440002405800024095
:101F5C006C0002400000024080B48BB000AF78608F
:101F6C00396000237B6200233B6248E101227B6ADB
:101F7C0002FA03F3FB613B681B68FA691340BB610F
:101F8C00BA69FB699A4240F037813B685B68A34AA7
:101F9C0093425ED0A14A934275D8A14A934258D03D
:101FAC009F4A93426FD89F4A934252D09D4A934284
:101FBC0069D89D4A93424CD09B4A934263D89B4A22
:101FCC00934246D0994A93425DD8122B2AD8122BB1
:101FDC0059D801A252F823F05F20000839200008DC
:101FEC004B2000088D200008932000089320000847
:101FFC0093200008932000089320000893200008E9
:10200C0093200008932000089320000893200008D8
:10201C00932000089320000893200008412000081A
:10202C0055200008824A934213D02CE03B68DB68B1
:10203C003B6229E03B68DB6804333B6224E03B688D
:10204C00DB6808333B621FE03B68DB680C333B62A8
:10205C001AE03B689B68002B02D104233B6213E01F
:10206C003B689B68012B05D108233B627B68FA69AE
:10207C001A6109E008233B627B68FA695A6103E044
:10208C0000233B6200E000BFBB69FF2B01D87B68DB
:10209C0001E07B6804337B61BB69FF2B02D87B6A50
:1020AC009B0002E07B6A083B9B003B617B691A68E2
:1020BC000F213B6901FA03F3DB431A40396A3B6990
:1020CC0001FA03F31A437B691A603B685B6803F0FF
:1020DC008053002B00F09080564B9B69554A43F07F
:1020EC0001039361534B9B6903F00103BB60BB6815
:1020FC00514A7B6A9B08023352F82330FB607B6A9F
:10210C0003F003039B000F2202FA03F3DB43FA688C
:10211C001340FB607B68494A93420DD07B68484A68
:10212C00934207D07B68474A934201D1022304E0D3
:10213C00032302E0012300E000237A6A02F0030289
:10214C0092009340FA681343FB603B497B6A9B08FF
:10215C000233FA6841F823203B685B6803F4803350
:10216C00002B06D0384B1A683749BB6913430B60F8
:10217C0006E0354B1A68BB69DB43334913400B60EF
:10218C003B685B6803F40033002B06D02E4B5A6877
:10219C002D49BB6913434B6006E02B4B5A68BB6956
:1021AC00DB43294913404B603B685B6803F48013A5
:1021BC00002B06D0244B9A682349BB6913438B60D0
:1021CC0006E0214B9A68BB69DB431F4913408B60C7
:1021DC003B685B6803F40013002B06D01A4BDA68DB
:1021EC001949BB691343CB6006E0174BDA68BB692E
:1021FC00DB4315491340CB607B6A01337B623B6840
:10220C001A687B6A22FA03F3002B7FF4AFAE00BF8F
:10221C0000BF2C37BD4680BC704700BF0000321099
:10222C0000003110000022100000211000001210DC
:10223C000000111000100240000001400008014095
:10224C00000C0140001001400004014080B485B036
:10225C0000AF78600B467B807B689A687B88134064
:10226C00002B02D00123FB7301E00023FB73FB7BEB
:10227C0018461437BD4680BC704780B483B000AF9D
:10228C0078600B467B8013467B707B78002B03D0E9
:10229C007A887B681A6103E07B881A047B681A6170
:1022AC0000BF0C37BD4680BC704780B485B000AF12
:1022BC0078600B467B807B68DB68FB607A88FB6808
:1022CC0013401A04FB68D9437B880B401A437B6884
:1022DC001A6100BF1437BD4680BC704780B586B00C
:1022EC0000AF78607B68002B01D101236CE27B6826
:1022FC001B6803F00103002B00F08780924B5B6896
:10230C0003F00C03042B0CD08F4B5B6803F00C0315
:10231C00082B12D18C4B5B6803F48033B3F5803FF0
:10232C000BD1894B1B6803F40033002B6CD07B68FA
:10233C005B68002B68D1012346E27B685B68B3F5D0
:10234C00803F06D1804B1B687F4A43F48033136077
:10235C002EE07B685B68002B0CD17B4B1B687A4AA8
:10236C0023F480331360784B1B68774A23F4802363
:10237C0013601DE07B685B68B3F5A02F0CD1724B2A
:10238C001B68714A43F4802313606F4B1B686E4AC1
:10239C0043F4803313600BE06B4B1B686A4A23F4E5
:1023AC0080331360684B1B68674A23F480231360E7
:1023BC007B685B68002B13D0FFF706FC386108E0E4
:1023CC00FFF702FC02463B69D31A642B01D90323A5
:1023DC00FAE15D4B1B6803F40033002BF0D014E0E2
:1023EC00FFF7F2FB386108E0FFF7EEFB02463B69B2
:1023FC00D31A642B01D90323E6E1534B1B6803F476
:10240C000033002BF0D100E000BF7B681B6803F0A9
:10241C000203002B63D04C4B5B6803F00C03002BC6
:10242C000BD0494B5B6803F00C03082B1CD1464BBB
:10243C005B6803F48033002B16D1434B1B6803F00D
:10244C000203002B05D07B681B69012B01D00123F3
:10245C00BAE13D4B1B6823F0F8027B685B69DB003B
:10246C00394913430B603AE07B681B69002B20D081
:10247C00364B01221A60FFF7A7FB386108E0FFF723
:10248C00A3FB02463B69D31A022B01D903239BE120
:10249C002D4B1B6803F00203002BF0D02A4B1B685A
:1024AC0023F0F8027B685B69DB00274913430B6060
:1024BC0015E0264B00221A60FFF786FB386108E016
:1024CC00FFF782FB02463B69D31A022B01D9032387
:1024DC007AE11D4B1B6803F00203002BF0D17B68E3
:1024EC001B6803F00803002B3AD07B689B69002B18
:1024FC0019D0174B01221A60FFF766FB386108E010
:10250C00FFF762FB02463B69D31A022B01D9032366
:10251C005AE10D4B5B6A03F00203002BF0D0012053
:10252C0000F0D8FA1CE00A4B00221A60FFF74CFBB3
:10253C0038610FE0FFF748FB02463B69D31A022BC8
:10254C0008D9032340E100BF0010024000004242C2
:10255C00800442429E4B5B6A03F00203002BE9D1DC
:10256C007B681B6803F00403002B00F0A68000239B
:10257C00FB75974BDB6903F08053002B0DD1944B0B
:10258C00DB69934A43F08053D361914BDB6903F0D1
:10259C008053BB60BB680123FB758E4B1B6803F437
:1025AC008073002B18D18B4B1B688A4A43F48073C1
:1025BC001360FFF709FB386108E0FFF705FB0246E3
:1025CC003B69D31A642B01D90323FDE0814B1B68B3
:1025DC0003F48073002BF0D07B68DB68012B06D1F1
:1025EC007B4B1B6A7A4A43F0010313622DE07B6834
:1025FC00DB68002B0CD1764B1B6A754A23F0010368
:10260C001362734B1B6A724A23F0040313621CE0BF
:10261C007B68DB68052B0CD16D4B1B6A6C4A43F055
:10262C00040313626A4B1B6A694A43F00103136289
:10263C000BE0674B1B6A664A23F001031362644B81
:10264C001B6A634A23F0040313627B68DB68002B6C
:10265C0015D0FFF7B9FA38610AE0FFF7B5FA024670
:10266C003B69D31A41F28832934201D90323ABE080
:10267C00574B1B6A03F00203002BEED014E0FFF75C
:10268C00A3FA38610AE0FFF79FFA02463B69D31AB6
:10269C0041F28832934201D9032395E04C4B1B6ADB
:1026AC0003F00203002BEED1FB7D012B05D1484B2F
:1026BC00DB69474A23F08053D3617B68DB69002BCD
:1026CC0000F08180424B5B6803F00C03082B61D057
:1026DC007B68DB69022B46D13F4B00221A60FFF767
:1026EC0073FA386108E0FFF76FFA02463B69D31AB8
:1026FC00022B01D9032367E0354B1B6803F00073F1
:10270C00002BF0D17B681B6AB3F5803F08D1304BAE
:10271C005B6823F400327B689B682D4913434B6044
:10272C002B4B5B6823F474127B68196A7B685B6AB9
:10273C000B43274913434B60274B01221A60FFF7C9
:10274C0043FA386108E0FFF73FFA02463B69D31AB7
:10275C00022B01D9032337E01D4B1B6803F00073D8
:10276C00002BF0D02FE01C4B00221A60FFF72CFA44
:10277C00386108E0FFF728FA02463B69D31A022BAE
:10278C0001D9032320E0124B1B6803F00073002BCC
:10279C00F0D118E07B68DB69012B01D1012313E038
:1027AC000B4B5B68FB60FB6803F480327B681B6A35
:1027BC009A4206D1FB6803F470127B685B6A9A42FA
:1027CC0001D0012300E0002318461837BD4680BD18
:1027DC0000100240007000406000424280B584B09E
:1027EC0000AF786039607B68002B01D10123D0E009
:1027FC006A4B1B6803F007033A689A4210D9674B7F
:10280C001B6823F0070265493B6813430B60634B5D
:10281C001B6803F007033A689A4201D00123B8E021
:10282C007B681B6803F00203002B20D07B681B68BD
:10283C0003F00403002B05D0594B5B68584A43F452
:10284C00E06353607B681B6803F00803002B05D022
:10285C00534B5B68524A43F460535360504B5B6874
:10286C0023F0F0027B689B684D4913434B607B68F7
:10287C001B6803F00103002B40D07B685B68012BC5
:10288C0007D1474B1B6803F40033002B15D10123F0
:10289C007FE07B685B68022B07D1414B1B6803F020
:1028AC000073002B09D1012373E03D4B1B6803F02F
:1028BC000203002B01D101236BE0394B5B6823F041
:1028CC0003027B685B68364913434B60FFF77CF966
:1028DC00F8600AE0FFF778F90246FB68D31A41F278
:1028EC008832934201D9032353E02D4B5B6803F0EC
:1028FC000C027B685B689B009A42EBD1274B1B68F0
:10290C0003F007033A689A4210D2244B1B6823F059
:10291C00070222493B6813430B60204B1B6803F0F2
:10292C0007033A689A4201D0012332E07B681B68A6
:10293C0003F00403002B08D0194B5B6823F4E0620E
:10294C007B68DB68164913434B607B681B6803F09C
:10295C000803002B09D0124B5B6823F460527B6890
:10296C001B69DB000E4913434B6000F021F8024653
:10297C000B4B5B681B0903F00F030A49CB5C22FA73
:10298C0003F3094A1360094B1B681846FFF7DAF882
:10299C00002318461037BD4680BD00BF0020024002
:1029AC0000100240384D0008AC000020B0000020A0
:1029BC0090B48AB000AF2A4B3C1D0FCB84E80F00BB
:1029CC0040F201233B800023FB610023BB61002309
:1029DC007B6200237B6100233B62224B5B68FB61C3
:1029EC00FB6903F00C03042B02D0082B03D02DE061
:1029FC001D4B3B622DE0FB699B0C03F00F0307F1B1
:102A0C002802134413F8243C7B61FB6903F48033E4
:102A1C00002B13D0134B5B685B0C03F0010307F125
:102A2C002802134413F8283CBB617B690E4A02FB55
:102A3C0003F2BB69B2FBF3F37B6204E07B690B4AE4
:102A4C0002FB03F37B627B6A3B6202E0064B3B6258
:102A5C0000BF3B6A18462837BD4690BC704700BF84
:102A6C00284D00080010024000127A0000093D00B9
:102A7C0080B400AF024B1B681846BD4680BC704743
:102A8C00AC00002080B500AFFFF7F2FF0246054B0B
:102A9C005B681B0A03F007030349CB5C22FA03F3C0
:102AAC00184680BD00100240484D000880B500AFAC
:102ABC00FFF7DEFF0246054B5B68DB0A03F00703FA
:102ACC000349CB5C22FA03F3184680BD0010024088
:102ADC00484D000880B485B000AF78600A4B1B6885
:102AEC000A4AA2FB03235B0A7A6802FB03F3FB602E
:102AFC0000BFFB685A1EFA60002BF9D100BF00BF63
:102B0C001437BD4680BC7047AC000020D34D62101A
:102B1C0080B582B000AF78607B68002B01D10123B7
:102B2C0041E07B6893F83D30DBB2002B06D17B682B
:102B3C00002283F83C207868FEF794FE7B68022222
:102B4C0083F83D207B681A687B680433194610466D
:102B5C0000F01CFC7B68012283F846207B68012274
:102B6C0083F83E207B68012283F83F207B6801229A
:102B7C0083F840207B68012283F841207B68012286
:102B8C0083F842207B68012283F843207B68012272
:102B9C0083F844207B68012283F845207B6801225E
:102BAC0083F83D20002318460837BD4680BD000041
:102BBC0080B485B000AF78607B6893F83D30DBB2B1
:102BCC00012B01D0012335E07B68022283F83D20E4
:102BDC007B681B68DA687B681B6842F00102DA606C
:102BEC007B681B68164A934209D07B681B68B3F15B
:102BFC00804F04D07B681B68124A934211D17B68CA
:102C0C001B689B6803F00703FB60FB68062B10D066
:102C1C007B681B681A687B681B6842F001021A60AB
:102C2C0007E07B681B681A687B681B6842F001022E
:102C3C001A60002318461437BD4680BC704700BF8D
:102C4C00002C01400004004080B582B000AF7860D9
:102C5C007B68002B01D1012341E07B6893F83D3068
:102C6C00DBB2002B06D17B68002283F83C2078680D
:102C7C0000F039F87B68022283F83D207B681A68E3
:102C8C007B6804331946104600F080FB7B680122F8
:102C9C0083F846207B68012283F83E207B68012262
:102CAC0083F83F207B68012283F840207B68012257
:102CBC0083F841207B68012283F842207B68012243
:102CCC0083F843207B68012283F844207B6801222F
:102CDC0083F845207B68012283F83D2000231846A9
:102CEC000837BD4680BD80B483B000AF786000BFAC
:102CFC000C37BD4680BC704780B584B000AF78609F
:102D0C0039603B68002B09D17B6893F83E30DBB20D
:102D1C00012B14BF01230023DBB222E03B68042B00
:102D2C0009D17B6893F83F30DBB2012B14BF012330
:102D3C000023DBB215E03B68082B09D17B6893F8C4
:102D4C004030DBB2012B14BF01230023DBB208E0BF
:102D5C007B6893F84130DBB2012B14BF01230023B5
:102D6C00DBB2002B01D0012359E03B68002B04D1CE
:102D7C007B68022283F83E2013E03B68042B04D1CD
:102D8C007B68022283F83F200BE03B68082B04D1C0
:102D9C007B68022283F8402003E07B68022283F8E0
:102DAC0041207B681B6801223968184600F064FDDD
:102DBC007B681B681C4A934207D17B681B685A6C62
:102DCC007B681B6842F400425A647B681B68164A95
:102DDC00934209D07B681B68B3F1804F04D07B68A9
:102DEC001B68124A934211D17B681B689B6803F0E5
:102DFC000703FB60FB68062B10D07B681B681A6806
:102E0C007B681B6842F001021A6007E07B681B6854
:102E1C001A687B681B6842F001021A60002318468E
:102E2C001037BD4680BD00BF002C0140000400409F
:102E3C0080B582B000AF78607B681B681B6903F0BB
:102E4C000203022B22D17B681B68DB6803F00203B0
:102E5C00022B1BD17B681B686FF002021A617B6826
:102E6C0001221A777B681B689B6903F00303002B14
:102E7C0003D0786800F06FFA05E0786800F062FA29
:102E8C00786800F071FA7B6800221A777B681B68FF
:102E9C001B6903F00403042B22D17B681B68DB68DD
:102EAC0003F00403042B1BD17B681B686FF0040236
:102EBC001A617B6802221A777B681B689B6903F492
:102ECC004073002B03D0786800F045FA05E0786871
:102EDC0000F038FA786800F047FA7B6800221A771D
:102EEC007B681B681B6903F00803082B22D17B68E5
:102EFC001B68DB6803F00803082B1BD17B681B687D
:102F0C006FF008021A617B6804221A777B681B68D1
:102F1C00DB6903F00303002B03D0786800F01BFA85
:102F2C0005E0786800F00EFA786800F01DFA7B680E
:102F3C0000221A777B681B681B6903F01003102BA7
:102F4C0022D17B681B68DB6803F01003102B1BD1AC
:102F5C007B681B686FF010021A617B6808221A7775
:102F6C007B681B68DB6903F44073002B03D0786823
:102F7C0000F0F1F905E0786800F0E4F9786800F009
:102F8C00F3F97B6800221A777B681B681B6903F0D6
:102F9C000103012B0ED17B681B68DB6803F0010376
:102FAC00012B07D17B681B686FF001021A617868EE
:102FBC00FEF7D4F87B681B681B6903F08003802B39
:102FCC000ED17B681B68DB6803F08003802B07D174
:102FDC007B681B686FF080021A61786800F0D1FC86
:102FEC007B681B681B6903F04003402B0ED17B6888
:102FFC001B68DB6803F04003402B07D17B681B6820
:10300C006FF040021A61786800F0B7F97B681B68B2
:10301C001B6903F02003202B0ED17B681B68DB6837
:10302C0003F02003202B07D17B681B686FF0200274
:10303C001A61786800F09CFC00BF0837BD4680BD63
:10304C0080B584B000AFF860B9607A60FB6893F823
:10305C003C30012B01D10223ACE0FB68012283F848
:10306C003C207B680C2B00F29F8001A252F823F0CD
:10307C00B1300008B5310008B5310008B531000891
:10308C00F1300008B5310008B5310008B531000841
:10309C0033310008B5310008B5310008B5310008EE
:1030AC0073310008FB681B68B968184600F0C6F954
:1030BC00FB681B689A69FB681B6842F008029A61FE
:1030CC00FB681B689A69FB681B6822F004029A6112
:1030DC00FB681B689969BB681A69FB681B680A4323
:1030EC009A6162E0FB681B68B968184600F00CFA3C
:1030FC00FB681B689A69FB681B6842F400629A6162
:10310C00FB681B689A69FB681B6822F480629A61F1
:10311C00FB681B689969BB681B691A02FB681B6812
:10312C000A439A6141E0FB681B68B968184600F0D5
:10313C0055FAFB681B68DA69FB681B6842F00802E9
:10314C00DA61FB681B68DA69FB681B6822F0040211
:10315C00DA61FB681B68D969BB681A69FB681B6874
:10316C000A43DA6121E0FB681B68B968184600F075
:10317C009FFAFB681B68DA69FB681B6842F4006203
:10318C00DA61FB681B68DA69FB681B6822F48062F1
:10319C00DA61FB681B68D969BB681B691A02FB689A
:1031AC001B680A43DA6100E000BFFB68002283F869
:1031BC003C20002318461037BD4680BD80B584B036
:1031CC0000AF786039607B6893F83C30012B01D1FB
:1031DC000223B3E07B68012283F83C207B68022247
:1031EC0083F83D207B681B689B68FB60FB6823F0C1
:1031FC007703FB60FB6823F47F43FB607B681B68F1
:10320C00FA689A603B681B68B3F5005F3ED0B3F573
:10321C00005F00F28780B3F5805F00F08580B3F526
:10322C00805F7FD8702B1AD0702B7BD8602B50D03E
:10323C00602B77D8502B3CD0502B73D8402B58D0C8
:10324C00402B6FD8302B64D0302B6BD8202B60D018
:10325C00202B67D8002B5CD0102B5AD062E07B68F7
:10326C0018683B6899683B685A683B68DB6800F0F3
:10327C00E4FA7B681B689B68FB60FB6843F0770390
:10328C00FB607B681B68FA689A604EE07B68186884
:10329C003B6899683B685A683B68DB6800F0CDFA7C
:1032AC007B681B689A687B681B6842F480429A6052
:1032BC003BE07B6818683B6859683B68DB681A46DA
:1032CC0000F044FA7B681B685021184600F09BFA0A
:1032DC002BE07B6818683B6859683B68DB681A46CA
:1032EC0000F062FA7B681B686021184600F08BFACC
:1032FC001BE07B6818683B6859683B68DB681A46BA
:10330C0000F024FA7B681B684021184600F07BFA19
:10331C000BE07B681A683B681B681946104600F086
:10332C0072FA02E000BF00E000BF7B68012283F864
:10333C003D207B68002283F83C2000231846103780
:10334C00BD4680BD80B483B000AF786000BF0C3741
:10335C00BD4680BC704780B483B000AF786000BFBE
:10336C000C37BD4680BC704780B483B000AF78602A
:10337C0000BF0C37BD4680BC704780B483B000AF33
:10338C00786000BF0C37BD4680BC704780B485B0F8
:10339C0000AF786039607B681B68FB607B68254AEE
:1033AC00934207D07B68B3F1804F03D07B68224AED
:1033BC00934208D1FB6823F07003FB603B685B68A9
:1033CC00FA681343FB607B681A4A934207D07B6808
:1033DC00B3F1804F03D07B68174A934208D1FB6846
:1033EC0023F44073FB603B68DB68FA681343FB60B3
:1033FC00FB6823F080023B685B691343FB607B68CE
:10340C00FA681A603B689A687B68DA623B681A68EB
:10341C007B689A627B68074A934203D13B681A69BE
:10342C007B681A637B6801225A6100BF1437BD4662
:10343C0080BC7047002C01400004004080B487B071
:10344C0000AF786039607B681B6A23F001027B68EF
:10345C001A627B681B6A7B617B685B683B617B687B
:10346C009B69FB60FB6823F07003FB60FB6823F037
:10347C000303FB603B681B68FA681343FB607B69C2
:10348C0023F002037B613B689B687A6913437B6181
:10349C007B681C4A93420CD17B6923F008037B6147
:1034AC003B68DB687A6913437B617B6923F0040317
:1034BC007B617B68134A934211D13B6923F480737F
:1034CC003B613B6923F400733B613B685B693A6980
:1034DC0013433B613B689B693A6913433B617B68CF
:1034EC003A695A607B68FA689A613B685A687B68EB
:1034FC005A637B687A691A6200BF1C37BD4680BC70
:10350C00704700BF002C014080B487B000AF7860DA
:10351C0039607B681B6A23F010027B681A627B6837
:10352C001B6A7B617B685B683B617B689B69FB60AA
:10353C00FB6823F4E043FB60FB6823F44073FB60FF
:10354C003B681B681B02FA681343FB607B6923F022
:10355C0020037B613B689B681B017A6913437B6189
:10356C007B681D4A93420DD17B6923F080037B61FC
:10357C003B68DB681B017A6913437B617B6923F031
:10358C0040037B617B68144A934213D13B6923F45B
:10359C0080633B613B6923F400633B613B685B697F
:1035AC009B003A6913433B613B689B699B003A69FA
:1035BC0013433B617B683A695A607B68FA689A618D
:1035CC003B685A687B689A637B687A691A6200BFA9
:1035DC001C37BD4680BC7047002C014080B487B0BE
:1035EC0000AF786039607B681B6A23F480727B685B
:1035FC001A627B681B6A7B617B685B683B617B68DA
:10360C00DB69FB60FB6823F07003FB60FB6823F055
:10361C000303FB603B681B68FA681343FB607B6920
:10362C0023F400737B613B689B681B027A6913432C
:10363C007B617B681D4A93420DD17B6923F4006347
:10364C007B613B68DB681B027A6913437B617B6996
:10365C0023F480637B617B68144A934213D13B69EA
:10366C0023F480533B613B6923F400533B613B687B
:10367C005B691B013A6913433B613B689B691B0106
:10368C003A6913433B617B683A695A607B68FA6814
:10369C00DA613B685A687B68DA637B687A691A621C
:1036AC0000BF1C37BD4680BC704700BF002C0140DA
:1036BC0080B487B000AF786039607B681B6A23F4F4
:1036CC0080527B681A627B681B6A3B617B685B6813
:1036DC007B617B68DB69FB60FB6823F4E043FB6088
:1036EC00FB6823F44073FB603B681B681B02FA68A1
:1036FC001343FB603B6923F400533B613B689B68BD
:10370C001B033A6913433B617B680F4A934209D10F
:10371C007B6923F480437B613B685B699B017A691D
:10372C0013437B617B687A695A607B68FA68DA615B
:10373C003B685A687B681A647B683A691A6200BFF6
:10374C001C37BD4680BC7047002C014080B487B04C
:10375C0000AFF860B9607A60FB681B6A7B61FB683C
:10376C001B6A23F00102FB681A62FB689B693B61D0
:10377C003B6923F0F0033B617B681B013A691343FF
:10378C003B617B6923F00A037B617A69BB68134355
:10379C007B61FB683A699A61FB687A691A6200BFBF
:1037AC001C37BD4680BC704780B487B000AFF86052
:1037BC00B9607A60FB681B6A23F01002FB681A621E
:1037CC00FB689B697B61FB681B6A3B617B6923F42B
:1037DC0070437B617B681B037A6913437B613B6994
:1037EC0023F0A0033B61BB681B013A6913433B61A7
:1037FC00FB687A699A61FB683A691A6200BF1C37E8
:10380C00BD4680BC704780B485B000AF786039602D
:10381C007B689B68FB60FB6823F07003FB603A6875
:10382C00FB68134343F00703FB607B68FA689A60FC
:10383C0000BF1437BD4680BC704780B487B000AF62
:10384C00F860B9607A603B60FB689B687B617B6960
:10385C0023F47F437B613B681A027B681A43BB6885
:10386C0013437A6913437B61FB687A699A6000BFE2
:10387C001C37BD4680BC704780B487B000AFF86081
:10388C00B9607A60BB6803F01F03012202FA03F3EC
:10389C007B61FB681A6A7B69DB431A40FB681A621E
:1038AC00FB681A6ABB6803F01F03796801FA03F31B
:1038BC001A43FB681A6200BF1C37BD4680BC7047B8
:1038CC0080B485B000AF786039607B6893F83C3089
:1038DC00012B01D1022341E07B68012283F83C20BB
:1038EC007B68022283F83D207B681B685B68FB6069
:1038FC007B681B689B68BB60FB6823F07003FB60F4
:10390C003B681B68FA681343FB607B681B68FA68AA
:10391C005A607B681B68144A934209D07B681B6809
:10392C00B3F1804F04D07B681B68104A93420CD1D2
:10393C00BB6823F08003BB603B685B68BA681343C9
:10394C00BB607B681B68BA689A607B68012283F84D
:10395C003D207B68002283F83C2000231846143756
:10396C00BD4680BC704700BF002C014000040040E5
:10397C0080B483B000AF786000BF0C37BD4680BC0C
:10398C00704780B483B000AF786000BF0C37BD4681
:10399C0080BC704780B582B000AF78607B68002B2C
:1039AC0001D101233FE07B6893F83D30DBB2002B63
:1039BC0006D17B68002283F83C207868FDF7BCFFB9
:1039CC007B68242283F83D207B681B68DA687B685F
:1039DC001B6822F40052DA60786800F025FC7B68E2
:1039EC001B681A697B681B6822F490421A617B6819
:1039FC001B685A697B681B6822F02A025A617B6833
:103A0C001B68DA687B681B6842F40052DA607B68DA
:103A1C0000221A647B68202283F83D207B682022D8
:103A2C0083F83E20002318460837BD4680BD80B57C
:103A3C008AB002AFF860B9603B601346FB8000238C
:103A4C007B61FB6893F83D30DBB2202B7CD1BB68EB
:103A5C00002B02D0FB88002B01D1012375E0FB6801
:103A6C0093F83C30012B01D102236EE0FB6801225C
:103A7C0083F83C20FB6800221A64FB68212283F83F
:103A8C003D20FEF7A1F87861FB68FA889A84FB6800
:103A9C00FA88DA84FB689B68B3F5805F08D1FB6811
:103AAC001B69002B04D10023FB61BB68BB6103E0E5
:103ABC00BB68FB610023BB61FB68002283F83C20E0
:103ACC002AE03B6800937B6900228021F86800F0B3
:103ADC0011FA0346002B01D0032336E0FB69002BBF
:103AEC000BD1BB691B881A46FB681B68C2F3080222
:103AFC005A60BB690233BB6107E0FB691A78FB684B
:103B0C001B685A60FB690133FB61FB68DB8C9BB261
:103B1C00013B9AB2FB68DA84FB68DB8C9BB2002B0E
:103B2C00CFD13B6800937B6900224021F86800F0FC
:103B3C00E1F90346002B01D0032306E0FB682022A9
:103B4C0083F83D20002300E0022318462037BD46B1
:103B5C0080BD000080B58AB000AF78607B681B68C0
:103B6C001B687B627B681B68DB683B627B681B683D
:103B7C005B69FB610023BB6100237B617B6A03F003
:103B8C000F03BB61BB69002B0DD17B6A03F02003D3
:103B9C00002B08D03B6A03F02003002B03D078687D
:103BAC0000F099FA7BE1BB69002B00F0B180FB6956
:103BBC0003F00103002B05D13B6A03F49073002B37
:103BCC0000F0A6807B6A03F00103002B0AD03B6A4D
:103BDC0003F48073002B05D07B681B6C43F001024F
:103BEC007B681A647B6A03F00403002B0AD0FB6920
:103BFC0003F00103002B05D07B681B6C43F0020221
:103C0C007B681A647B6A03F00203002B0AD0FB6901
:103C1C0003F00103002B05D07B681B6C43F00402FE
:103C2C007B681A647B6A03F00803002B0FD03B6A95
:103C3C0003F02003002B04D1FB6903F00103002BDC
:103C4C0005D07B681B6C43F008027B681A647B68A8
:103C5C001B6C002B00F01E817B6A03F02003002BF1
:103C6C0007D03B6A03F02003002B02D0786800F0E9
:103C7C0032FA7B681B685B6903F04003002B14BFAE
:103C8C0001230023DBB27B617B681B6C03F0080310
:103C9C00002B02D17B69002B31D0786800F074F9CD
:103CAC007B681B685B6903F04003002B23D07B68A7
:103CBC001B685A697B681B6822F040025A617B685A
:103CCC009B6B002B13D07B689B6B764A5A637B688B
:103CDC009B6B1846FEF7CAF80346002B16D07B6880
:103CEC009B6B5B6B7A68926B104698470EE078681A
:103CFC0000F0ECF80AE0786800F0E8F806E0786884
:103D0C0000F0E4F87B6800221A64C3E000BFC1E055
:103D1C007B681B6B012B40F0A1807B6A03F01003C6
:103D2C00002B00F09B803B6A03F01003002B00F08B
:103D3C0095800023FB607B681B681B68FB607B68BD
:103D4C001B685B68FB60FB687B681B685B6903F046
:103D5C004003002B4ED07B689B6B1B685B683B82DF
:103D6C003B8A002B00F098807B689B8D3A8A9A42A4
:103D7C0080F092807B683A8ADA857B689B6B9B69C2
:103D8C00202B2BD07B681B68DA687B681B6822F4BD
:103D9C008072DA607B681B685A697B681B6822F04A
:103DAC0001025A617B681B685A697B681B6822F0A8
:103DBC0040025A617B68202283F83E207B680022F7
:103DCC001A637B681B68DA687B681B6822F0100238
:103DDC00DA607B689B6B1846FEF70DF87B689A8D52
:103DEC007B68DB8D9BB2D31A9BB21946786800F0C6
:103DFC0076F851E07B689A8D7B68DB8D9BB2D31A89
:103E0C007B827B68DB8D9BB2002B47D07B8A002B9F
:103E1C0044D07B681B68DA687B681B6822F490725C
:103E2C00DA607B681B685A697B681B6822F00102A8
:103E3C005A617B68202283F83E207B6800221A633B
:103E4C007B681B68DA687B681B6822F01002DA60FA
:103E5C007B8A1946786800F042F81FE07B6A03F011
:103E6C008003002B08D03B6A03F08003002B03D0A7
:103E7C00786800F0C9F812E07B6A03F04003002B6D
:103E8C000DD03B6A03F04003002B08D0786800F09B
:103E9C000AF904E000BF02E000BF00E000BF2837D1
:103EAC00BD4680BDED3F000880B483B000AF7860A4
:103EBC0000BF0C37BD4680BC704780B483B000AFE8
:103ECC00786000BF0C37BD4680BC704780B483B0AF
:103EDC0000AF786000BF0C37BD4680BC704780B423
:103EEC0083B000AF78600B467B8000BF0C37BD46BB
:103EFC0080BC704780B584B000AFF860B9603B609F
:103F0C001346FB712CE0BB69B3F1FF3F28D0BB69B2
:103F1C00002B07D0FDF758FE02463B68D31ABA694E
:103F2C009A421DD2FB681B68DA68FB681B6822F496
:103F3C00D072DA60FB681B685A69FB681B6822F058
:103F4C0001025A61FB68202283F83D20FB68202285
:103F5C0083F83E20FB68002283F83C2003230FE00B
:103F6C00FB681B681A68BB681340BA689A420CBF9E
:103F7C0001230023DBB21A46FB799A42C3D00023FB
:103F8C0018461037BD4680BD80B483B000AF786052
:103F9C007B681B68DA687B681B6822F49072DA60B5
:103FAC007B681B685A697B681B6822F001025A61A6
:103FBC007B681B6B012B07D17B681B68DA687B68FD
:103FCC001B6822F01002DA607B68202283F83E2006
:103FDC007B6800221A6300BF0C37BD4680BC70475B
:103FEC0080B584B000AF78607B685B6AFB60FB686F
:103FFC000022DA85FB680022DA84F868FFF766FF96
:10400C0000BF1037BD4680BD80B485B000AF78606E
:10401C007B6893F83D30DBB2212B3ED17B689B68EB
:10402C00B3F5805F14D17B681B69002B10D17B68C2
:10403C001B6AFB60FB681B881A467B681B68C2F313
:10404C0008025A607B681B6A9A1C7B681A6208E03B
:10405C007B681B6A591C7A6811621A787B681B682A
:10406C005A607B68DB8C9BB2013B9BB27A68194629
:10407C00D184002B0FD17B681B68DA687B681B68C6
:10408C0022F08002DA607B681B68DA687B681B6848
:10409C0042F04002DA60002300E002231846143795
:1040AC00BD4680BC704780B582B000AF78607B683D
:1040BC001B68DA687B681B6822F04002DA607B6858
:1040CC00202283F83D207868FFF7EEFE0023184687
:1040DC000837BD4680BD80B586B000AF78607B6880
:1040EC0093F83E30DBB2222B40F099807B689B68C2
:1040FC00B3F5805F17D17B681B69002B13D10023AC
:10410C007B617B689B6A3B617B681B685B689BB2CD
:10411C00C3F308039AB23B691A807B689B6A9A1CAA
:10412C007B689A6226E07B689B6A7B6100233B611B
:10413C007B689B68B3F5805F07D07B689B68002B1E
:10414C000AD17B681B69002B06D17B681B685B68F6
:10415C00DAB27B691A7008E07B681B685B68DBB2BB
:10416C0003F07F03DAB27B691A707B689B6A5A1C76
:10417C007B689A627B68DB8D9BB2013B9BB27A6851
:10418C001946D185002B48D17B681B68DA687B689F
:10419C001B6822F02002DA607B681B68DA687B6897
:1041AC001B6822F48072DA607B681B685A697B6832
:1041BC001B6822F001025A617B68202283F83E20A2
:1041CC007B681B6B012B23D17B6800221A637B68F5
:1041DC001B68DA687B681B6822F01002DA607B6867
:1041EC001B681B6803F01003102B0AD10023FB6023
:1041FC007B681B681B68FB607B681B685B68FB60EB
:10420C00FB687B689B8D19467868FFF768FE02E0B7
:10421C007868FFF752FE002302E0002300E002233F
:10422C0018461837BD4680BD80B584B000AF7860A5
:10423C007B681B681B6923F440517B68DA687B68D8
:10424C001B680A431A617B689A687B681B691A436E
:10425C007B685B691343BB607B681B68DB6823F47A
:10426C00B05323F00C037A681268B9680B43D3601F
:10427C007B681B685B6923F440717B689A697B6877
:10428C001B680A435A617B681B682C4A934203D112
:10429C00FEF70CFCF86002E0FEF7F4FBF860FA683D
:1042AC0013469B0013449A001A447B685B689B007E
:1042BC00B2FBF3F3224AA2FB03235B091901FA6850
:1042CC0013469B0013449A001A447B685B689B005E
:1042DC00B2FBF3F21A4BA3FB02035B09642000FB55
:1042EC0003F3D31A1B013233154AA2FB03235B09D8
:1042FC0003F0F0031944FA6813469B0013449A0028
:10430C001A447B685B689B00B2FBF3F20C4BA3FB7B
:10431C0002035B09642000FB03F3D31A1B01323345
:10432C00074AA2FB03235B0903F00F027B681B689F
:10433C000A449A6000BF1037BD4680BD003801406A
:10434C001F85EB51014B1868704700BFB800002067
:10435C0070B500260C4D0D4C641BA410A64209D15F
:10436C0000F064FC00260A4D0A4C641BA410A64203
:10437C0005D170BD55F8043B98470136EEE755F86A
:10438C00043B98470136F2E7844D0008844D000841
:10439C00844D0008884D0008024B0146186800F057
:1043AC0057B800BFB800002003460244934200D126
:1043BC00704703F8011BF9E738B50546002943D0CF
:1043CC0051F8043C0C1F002BB8BFE41800F0CAF8DD
:1043DC001E4A1368104633B9636014602846BDE862
:1043EC00384000F0C5B8A3420AD92168621893423C
:1043FC0001BF1A685B685218226063600460EDE7C5
:10440C001A465B680BB1A342FAD911685018A04246
:10441C000BD120680144501883421160DED118681A
:10442C005B68014411605360D8E702D90C232B6000
:10443C00D4E7206821188B4201BF19685B68091802
:10444C00216063605460C9E738BD00BF7C01002067
:10445C00F8B5CD1C25F0030508350C2D38BF0C25FF
:10446C00002D064601DBA94203D90C233360002042
:10447C00F8BD00F077F821490A6814469CB9204F22
:10448C003B6823B92146304600F03CF83860294699
:10449C00304600F037F8431C23D10C2330463360F0
:1044AC0000F066F8E3E723685B1B17D40B2B03D9EA
:1044BC0023601C44256004E06368A2420CBF0B60BF
:1044CC005360304600F054F804F10B00231D20F02B
:1044DC000700C21ACCD01B1AA350C9E72246646845
:1044EC00CCE7C41C24F00304A042E3D0211A3046CC
:1044FC0000F008F80130DDD1CFE700BF7C010020CF
:10450C008001002038B50023054D044608462B6079
:10451C00FDF7A0FA431C02D12B6803B1236038BD10
:10452C00940200200EB46FF0004100B59CB01DAB9E
:10453C0002900690079104910848094953F8042BFE
:10454C000591006802A9019300F074F80022029B07
:10455C001A701CB05DF804EB03B07047B800002073
:10456C000802FFFF014800F0FBBA00BF9C020020CC
:10457C00014800F0F6BA00BF9C0200202DE9F0477C
:10458C008E6882469E420C4690461F4638D88A89D1
:10459C0012F4906F32D0256809690133A5EB01093B
:1045AC0065694B4405EB450505EBD5756D109D42D2
:1045BC0038BF1D46530531D52946FFF749FF06463E
:1045CC0050B90C234FF0FF30CAF80030A38943F0E8
:1045DC004003A381BDE8F0874A46216900F0D0FA78
:1045EC00A38923F4906343F08003A38126614E4496
:1045FC0026603E466561A5EB0905A560BE4200D963
:10460C003E4632464146206800F0C8FAA36822684C
:10461C009B1B32440020A3602260DBE72A4600F09B
:10462C00D7FA06460028E1D150462169FFF7C4FEAF
:10463C00C7E700002DE9F04F98468B8907461B060B
:10464C000D4614469DB00ED50B6963B94021FFF79A
:10465C00FFFE2860286120B90C233B604FF0FF302F
:10466C00D1E040236B610023099320238DF829307E
:10467C0030234FF00109CDF80C80DFF8A4818DF8C0
:10468C002A3023469A4613F8012B0AB1252AF9D170
:10469C00BAEB040B0BD05B46224629463846FFF793
:1046AC006DFF013000F0AA80099A5A4409929AF8D9
:1046BC000030002B00F0A28000234FF0FF32CDE938
:1046CC0005230AF1010A049307938DF853301A93CA
:1046DC005446052214F8011B514800F043FA049A81
:1046EC00D8B9D00644BF20238DF85330110744BFEE
:1046FC002B238DF853309AF800302A2B15D05446C2
:10470C0000204FF00A0C079A214611F8013B303B70
:10471C00092B4ED9B0B1079214E0A0EB080309FAAB
:10472C0003F31343A2460493D2E7039B191D1B68A2
:10473C000391002BBBBF5B4242F00202079307932D
:10474C00B8BF049223782E2B0CD163782A2B35D149
:10475C00039B02341A1D1B680392002BB8BF4FF049
:10476C00FF330593DFF8C8A003225046217800F0F0
:10477C00F9F940B14023A0EB0A0003FA00F0049BC6
:10478C0001340343049314F8011B062225488DF8C9
:10479C00281000F0E7F9002838D0234B1BBB039BF3
:1047AC00073323F0070308330393099B334409931E
:1047BC0067E70C4601200CFB0232A5E700234FF003
:1047CC000A0C194601340593204610F8012B303A97
:1047DC00092A03D9002BC5D00591C3E70446012350
:1047EC000CFB0121F0E703AB00932A4638460F4B34
:1047FC0004A9AFF30080421C0646D6D1AB895B06F8
:10480C003FF52CAF09981DB0BDE8F08F03AB0093BA
:10481C002A463846054B04A900F07CF8EBE700BFAC
:10482C00504D00085A4D0008000000008945000852
:10483C00564D00082DE9F047164699468A680B69D3
:10484C0007469342B8BF1346336091F843200C4699
:10485C00DDF820800AB1013333602368990642BF2A
:10486C00336802333360256815F0060506D104F170
:10487C00190AE36832689B1AAB4228DC94F843208F
:10488C00131E226818BF012392062DD449463846C0
:10489C0004F14302C047013020D02368E56803F0DF
:1048AC000603042B18BF002532684FF00006A368DE
:1048BC0008BFAD1A226908BF25EAE5759342C4BF4B
:1048CC009B1AED181A34B5421AD1002008E00123C6
:1048DC00524649463846C047013003D14FF0FF30AD
:1048EC00BDE8F0870135C4E73020E11881F84300BA
:1048FC005A1C94F845102244023382F84310C5E741
:10490C000123224649463846C0470130E6D00136DD
:10491C00D9E700002DE9FF470C46277E9146782FFA
:10492C0080469A460C9904F1430207D8622F0AD8A4
:10493C00002F00F0D980582F00F0A48004F142061B
:10494C0084F842703AE0A7F16303152BF6D801A066
:10495C0050F823F0B9490008CD490008494900082E
:10496C00494900084949000849490008CD4900084F
:10497C0049490008494900084949000849490008C3
:10498C00DB4A0008FD490008BD4A000849490008F7
:10499C0049490008FD4A000849490008FD4900083A
:1049AC004949000849490008C54A00080B6804F148
:1049BC0042061A1D1B680A6084F842300123A4E0E9
:1049CC00256808682E0600F104030AD505680B60FB
:1049DC00002D03DA2D236D4284F843300A235E4800
:1049EC0019E015F0400F05680B6018BF2DB2EFE70A
:1049FC000B682568181D0860280601D51D6802E0A3
:104A0C006906FBD51D886F2F0CBF08230A2352485B
:104A1C00002184F843106668002EA8BF2168A660A8
:104A2C00A4BF21F0040121600DB9002E4DD0164613
:104A3C00B5FBF3F103FB1157C75D06F8017D2F465B
:104A4C00BB420D46F4D9082B0BD12368DF0708D5E0
:104A5C00236961689942DEBF302306F8013C06F1F8
:104A6C00FF36921B22614B4621464046CDF800A0F2
:104A7C0003AAFFF7DFFE01304CD14FF0FF3004B03A
:104A8C00BDE8F087344884F845700E68236856F802
:104A9C00045B1F060E6014D5D90744BF43F02003F6
:104AAC0023601DB9236823F0200323601023AFE794
:104ABC00236843F0200323607823284884F845308A
:104ACC00E3E75E0648BFADB2E6E71646BBE70B6808
:104ADC0026681D1D60690D6035061B6801D51860C0
:104AEC0002E07106FBD51880002316462361BAE755
:104AFC000B681A1D0A601E6800213046626800F0BF
:104B0C0031F808B1801B606063682361002384F86E
:104B1C004330A8E73246494640462369D047013026
:104B2C00ABD023689B0713D4E068039B9842B8BFB3
:104B3C001846A4E70123324649464046D047013087
:104B4C009BD00135E36803995B1AAB42F2DCEBE7CF
:104B5C00002504F11906F5E7614D0008724D0008B7
:104B6C0070477047034610B5C9B2024493421846C9
:104B7C0001D1002003E0047801338C42F6D110BD42
:104B8C000A44914200F1FF3300D1704710B511F87F
:104B9C00014B914203F8014FF9D110BD884210B579
:104BAC0001EB020402D98442234607D8431EA142DA
:104BBC0008D011F8012B03F8012FF8E70146024445
:104BCC008A4200D110BD13F8014D02F8014DF7E7F0
:104BDC00F8B5074614460E4621B91146BDE8F84013
:104BEC00FFF736BC22B9FFF7E7FB25462846F8BD90
:104BFC0000F014F8A0420FD221463846FFF728FCEB
:104C0C0005460028F2D031462246FFF7B9FF31465F
:104C1C003846FFF7D1FBE9E73546E7E751F8043CA6
:104C2C00181F002BBCBF0B58C0187047F8B500BF3D
:104C3C00F8BC08BC9E467047F8B500BFF8BC08BC71
:044C4C009E467047C9
:104C50002154494D455220524544203A2564230DA4
:104C60000A0000002154494D455220414D42455211
:104C7000203A2564230D0A002154494D455220470E
:104C80005245454E203A2564230D0A0021535749C9
:104C900054434820544F204D414E55414C204D4FD8
:104CA0004445230D0A00000021535749544348202E
:104CB000544F204155544F204D4F4445230D0A0079
:104CC0002153574954434820544F2054554E494E80
:104CD00047204D4F4445230D0A0000002154494D03
:104CE0004552204552524F52230D0A000A21375394
:104CF000454720574159313A2564230D0A000000E9
:104D0000213753454720574159323A2564230D0A2C
:104D100000000000215045444553545249414E3A49
:104D2000202564230D0A0000020304050607080974
:104D30000A0B0C0D0E0F1010000000000000000008
:104D40000102030406070809000000000102030431
:104D5000232D302B2000686C4C0065666745464764
:104D600000303132333435363738394142434445E7
:104D70004600303132333435363738396162636456
:044D80006566000064
:044D840031010008F1
:044D88000D01000811
:104D8C000100000001000000010000000100000013
:104D9C000000000000000000000000000000000007
:104DAC0000000000000000000000000000000000F7
:104DBC0000000000000000000000000000000000E7
:104DCC0000000000000000000000000000000000D7
:104DDC0000000000000000000000000000000000C7
:104DEC0000000000000000000000000000000000B7
:104DFC00001001400010014000100140000801406B
:104E0C0000200040008001000A0000000A000000A1
:104E1C00050000000200000003000000E803000091
:104E2C00FA00000000000000000000000024F40064
:104E3C001000000001000000BC0000200000000079
:104E4C000000000000000000000000000000000056
:104E5C000000000000000000000000000000000046
:104E6C000000000000000000000000000000000036
:104E7C000000000000000000000000000000000026
:104E8C000000000000000000000000000000000016
:0C4E9C000000000000000000000000000A
:0400000508001AD9FC
:00000001FF
